:040000008A11F52F3D
:100CAC008D30831203139F00831603139F0183124D
:100CBC0003139F149F18632E642E602E1E08F100E0
:100CCC00831603131E08F0000800F100640083165D
:100CDC0003178C18722E732E6C2E71088312031747
:100CEC008D003F30F0007008831603178C050C1430
:100CFC00831203170C0808008312031307178717B6
:100D0C001A30F100F830F000F00B8A2EF10B8A2E1D
:100D1C0000008312031387130630F2001330F10026
:100D2C00AD30F000F00B982EF10B982EF20B982EA4
:100D3C009F2E831203138717080083120313871740
:100D4C0007171A30F100F830F000F00BAB2EF10B56
:100D5C00AB2E00008312031307130630F20013307E
:100D6C00F100AD30F000F00BB92EF10BB92EF20BF7
:100D7C00B92EC02E8312031307170800F200831636
:100D8C0003178C18CA2ECB2EC52E7208831203178C
:100D9C008D0070088C003F30F1007108831603172A
:100DAC008C058312031303108B1FDD2EDE2EDF2E1A
:100DBC0003148B13831603170C1555308D00AA30B2
:100DCC008D008C140C1183120313031CEE2EEF2ECA
:100DDC00F02E8B1708008316031381018B018C01F5
:100DEC008D018E0177308F009001831203138501E2
:100DFC00860187011030831603138500103086009E
:100E0C0087019501103083120317950008309E005E
:100E1C009F01831203139001920107308312031771
:100E2C00990007309A0000308A116B268A11F20063
:100E3C00F3017208F9007308FA007A08803AFF008F
:100E4C0084307F02031D2C2F0030790203182F2FC2
:100E5C00302F342FFA1F332F342F382FFF30F90057
:100E6C000330FA0008008A11F1268A11F701F80103
:100E7C008312031322032304031D452F462F792FBE
:100E8C008A11A3268A11722F7808803AFF008130CC
:100E9C007F02031D532FF43077020318562F572F60
:100EAC005E2F0130F7070318F80A0030F807722F8D
:100EBC008A1156268A117108FA007008F90079080F
:100ECC00F4007408F00000308A11C4268A118312D1
:100EDC0003138713A201A30183120313061E772F9A
:100EEC00782F4A2FE52F8A1182268A11982F78089D
:100EFC00803AFF0083307F02031D862FE830770293
:100F0C000318892F8A2F912F0130F7070318F80A3D
:100F1C000030F807982F8312031387170130A200B3
:100F2C000030A30083120313061E9D2F9E2F7D2FCE
:100F3C008A1156268A117108803AF4007A08803A90
:100F4C007402031DAB2F79087002031CAE2FAF2F58
:100F5C00DA2F7B037C04031DB42FB52FD12F831202
:100F6C0003132108803AFF0080307F02031DC02F3D
:100F7C000A3020020318C32FC42FCD2F0130831247
:100F8C000313A0070318A10A0030A107E52F831251
:100F9C0003130617E52F0130FB000030FC00831211
:100FAC000313A001A101E52F7B037C04031DDF2F9C
:100FBC00E02FE52FFB01FC0183120313061306300F
:100FCC00F6001330F500AD30F400F40BEB2FF50BFD
:100FDC00EB2FF60BEB2FF22F3C2F8A110028FB0185
:100FEC00FC0183120313A001A101A201A30183013F
:040FFC008A11392FEE
:02400E00D43F9D
:00000001FF
